:100650003132334134353642373839432A30234436
:06001C0001550001760011
:100553007FA07E8612057A7FA07E8612057A7FA011
:100563007E8612057A7FA07E8612057A7FA07E861C
:0705730012057A7FA07E86CD
:0B057A00EF1FAC0670011E4C70F62253
:10061500758920758DF3758BF3D28E759850758716
:050625008075A8902281
:10032500E4F55475900FE590640F70030203B37FF5
:10033500E87E0312057AE590640F607275900FAF41
:1003450090EF24F5601024FE6011146013240770EB
:1003550012E4F578800D75780180087578028003C0
:100365007578037590F0AF90EF2450601124E0602C
:100375001124F0601124707013857878800E740450
:10038500800674088002740C2578F578C3E55464FA
:100395008094B25011E59064F0600B7FE87E031203
:1003A500057A055480E6E57890065093FF227F256F
:0103B5002225
:10051E008F54120003E554600BC2A37F4F1206885E
:10052E007F4B80167F451206887F521206887F52B7
:10053E001206887F301206887F52120688120553E3
:05054E00D2A30200032E
:100442007D307F011205FC7F647E0012057A7D31CA
:100452007F021205FC7F647E0012057A7D327F03E3
:100462001205FC7F647E0012057A7D337F0412053B
:10047200FC7F647E0012057A7D347F051205FC7FC5
:10048200647E0012057A7D357F061205FC7F647E4C
:040492000002057AE5
:10002600E4F54E754F01F550F55175520112000376
:10003600120615E4F553E55304FF1205DA74282574
:1000460053F8A6077F647E0012057A0553E553D35D
:10005600940540E2E57670071203258F778005AF99
:10006600771206887F647E0012057AE5776425603C
:10007600E3E4F576E577644160030201197F041233
:10008600067E7F201206887F0612067E7F201206D5
:10009600887F0412067E7F201206887F0612067E5F
:1000A600154E7B007A00795612062AD3EF9406EE97
:1000B600940040A0E4F5537B007A00795612062A94
:1000C600EF24FFFFEE34FFFED3E5539FE49E50126C
:1000D60074562553F8E6FF74082553F8A60705530A
:1000E60080D57E007F207D007B007A007956120441
:1000F60096E4F553E54E14FFE553D39F4003020003
:100106005A74082553F8E6FF74562553F8A60705D2
:100116005380E1E577B442181200037E007F207D0C
:10012600007B007A007956120496E4F54E02005AD6
:10013600E57764437073E556642A703DE55764239A
:100146007037E55864377031E5596439702BE55AD4
:1001560064237025E55B642A701FE5507015120054
:1001660003E4F54EFE7F20FDFB7A007956120496D5
:10017600E4F55675500102005A120003E4F54EFEEE
:100186007F20FDFB7A007956120496E4F55612009C
:10019600037F4E1206887F4F1206887F5412068808
:1001A60012055312000302005AE577B44402801682
:1001B6007456254EF8A6777456254EF8E6FF1206B5
:1001C60088054E02005AE5507039FB7A00795612BE
:1001D600062AEF64064E6003E4F54FE4F5537428EF
:1001E6002553F8E6FF74562553F8E66F6003E4F5E9
:1001F6004F0553E553B406E6AF4F12051E754F0182
:10020600020310E5517033F5537B007A00795612DC
:10021600062AEF24FFFFEE34FFFED3E5539FE49E4C
:10022600501274562553F8E6FF742E2553F8A60788
:10023600055380D5755101020310E4F5537B007A0E
:1002460000795612062AEF24FFFFEE34FFFED3E5AF
:10025600539FE49E503674562553F8E6FF742E25B8
:1002660053F8E6B5071D7B007A00795612062AEF89
:1002760064064E700EFB7A00792E12062AEF64068B
:100286004E6005E4F5528004055380B1E552605393
:100296007F591206887F451206887F53120688E426
:1002A600F553E55304FF742E2553F8E6FD1205FCBD
:1002B6007F647E0012057A0553E553D3940540E228
:1002C600E4F553E55304FF1205DA74282553F8A61E
:1002D600077F647E0012057A0553E553D3940540E3
:1002E600E2800A7F4E1206887F4F120688E4F55197
:1002F600755201F550FE7F20FDFB7A00792E12041F
:1003060096E4F52E120553120003E4F54EFE7F2007
:0F031600FDFB7A007956120496E4F55602005A60
:0300230002063F93
:10063F00859977C2988577993099FDC2997576011A
:01064F003278
:1005B000C2A58F807F017E001205C1D2A77F057E74
:0105C000003A
:1005C100D3EF9400EE9400400F7DC77C01DCFEDD8B
:0805D100FAEF1F70EB1E80E839
:0105D90022FF
:0A067E00C2A7C2A61205B0C2A7224F
:0A068800C2A7D2A61205B0C2A72235
:100003007F3812067E7F0E12067E7F0612067E7FE3
:090013000112067E7F8002067EC8
:080692007F017E02DEFEDFFAAB
:01069A00223D
:0F066000D2A0120692D2A1120692C2A002069256
:0F066F00C2A0120692D2A1120692D2A002069247
:0204DB00AD076B
:1004DD00C2A1120692E4FCED30E704D2A08002C264
:1004ED00A0120692ED25E0FDD2A1120692C2A11234
:1004FD0006920CBC08E1D2A0120692D2A130A00B3C
:10050D000554E554D394C840F48000C2A11206925C
:01051D0022BB
:10058500E4FDC2A1120692D2A0120692FCD2A112DB
:100595000692ED25E0FDA2A0E4334205120692C2C3
:0A05A500A11206920CBC08E5AF0598
:0105AF002229
:1005FC00AB05AA071206607FA01204DBAF0212043F
:09060C00DBAF031204DB02066FF0
:0205DA00AB076D
:1005DC001206607FA01204DBAF031204DB1206606C
:0F05EC007FA11204DB120585AD0712066FAF0564
:0105FB0022DD
:030000000203B642
:0C03B600787FE4F6D8FD7581780203FD25
:10062A00E4FFFE1204C2600C0FEF70010E09E970BC
:05063A00F20A80EF222E
:10049600EF4E6012EF60010EEDBB010B89828A837D
:1004A600F0A3DFFCDEFA2289F05007F709DFFCA98A
:0C04B600F022BBFEFCF309DFFCA9F022E1
:1003C200020026E493A3F8E493A34003F68001F22B
:1003D20008DFF48029E493A3F85407240CC8C3333C
:1003E200C4540F4420C8834004F456800146F6DF0B
:1003F200E4800B010204081020408090001CE47E7F
:10040200019360BCA3FF543F30E509541FFEE493FF
:10041200A360010ECF54C025E060A840B8E493A3C6
:10042200FAE493A3F8E493A3C8C582C8CAC583CAF1
:10043200F0A3C8C582C8CAC583CADFE9DEE780BEA9
:0100220000DD
:1004C200BB010689828A83E0225002E722BBFE0238
:0904D200E32289828A83E493226B
:00000001FF
