:10045F003132334134353642373839432A30234429
:06046F0030313233343558
:03049E0001510009
:100422007FA07E8612043B7FA07E8612043B7FA0C3
:090432007E8612043B7FA07E8649
:0B043B00EF1FAC0670011E4C70F62293
:10033B00E4F55075900FE590640F607A7FE87E03CB
:10034B0012043BE590640F606A75900FAF90EF2439
:10035B00F5601024FE601114601324077012E4F58D
:10036B0052800D755201800875520280037552033D
:10037B007590F0AF90EF2450601124E0601124F0E1
:10038B00601124707013855252800E7404800674B1
:10039B00088002740C2552F552C3E550648094B268
:1003AB005011E59064F0600B7FE87E0312043B056F
:0803BB005080E67F01227F0063
:0103C3002217
:1003C400EF60097F4F1204947F4B80167F4512041F
:1003D400947F521204947F521204947F3012049436
:1003E4007F521204941204221204371204221204BB
:0403F400467F01221D
:1000030078487C007D007BFF7A04796F7E007F0651
:10001300120244754E0112044612033BEF60FAE5E7
:1000230051B411057FC012048AE551B421061204AC
:1000330046755101E55290045F93FF64426018EFE7
:1000430064416013120494E55290045F93FF7408B3
:100053002551F8A6070551E55290045F936441606A
:040063000302010192
:100067007F0412048A7F201204947F0612048A7F79
:10007700201204947F0412048A7F201204947F06BE
:1000870012048A15517B007A007908120475D3EFA0
:100097009406EE648094804061E4F54F7B007A001B
:1000A7007908120475EF24FFFFEE34FFFED3E54F06
:1000B7009FEE6480F874809850127408254FF8E614
:1000C700FF7428254FF8A607054F80D07E007F20B4
:1000D7007D007B007A00790812026AE4F54FE5514A
:1000E70014FFE54FD39F50127428254FF8E6FF748D
:0A00F70008254FF8A607054F80E426
:10010100E55290045F93B442151204467E007F20AD
:100111007D007B007A00790812026AE4F551E5520C
:1001210090045F936444600302001C7B007A0079B1
:1001310008120475EF64074E6003E4F54EE4FF74A2
:10014100482FF8E6FE74082FF8E66E6003E4F54EDA
:100151000FBF06EB120446AF4E1203C48F4EE4F5F7
:1001610051FE7F20FDFB7A00790812026AE4F5084E
:0301710002001C6D
:1003F800C2A58F807F017E00120409D2A77F057EE7
:0104080000F3
:10040900D3EF9400EE9400400F7DC77C01DCFEDD44
:08041900FAEF1F70EB1E80E8F2
:0104210022B8
:0A048A00C2A7C2A61203F8C2A722FF
:0A049400C2A7D2A61203F8C2A722E5
:100446007F3812048A7F0E12048A7F0612048A7F7E
:090456000112048A7F8002048A6D
:030000000202AF4A
:0C02AF00787FE4F6D8FD7581520202F65B
:10017400E709F608DFFA8046E709F208DFFA803E6D
:1001840088828C83E709F0A3DFFA8032E309F6085A
:10019400DFFA8078E309F208DFFA807088828C83C2
:1001A400E309F0A3DFFA806489828A83E0A3F60876
:1001B400DFFA805889828A83E0A3F208DFFA804C50
:1001C40080D280FA80C680D4806980F28033801027
:1001D40080A680EA809A80A880DA80E280CA803390
:1001E40089828A83ECFAE493A3C8C582C8CCC58308
:1001F400CCF0A3C8C582C8CCC583CCDFE9DEE780D8
:100204000D89828A83E493A3F608DFF9ECFAA9F056
:10021400EDFB2289828A83ECFAE0A3C8C582C8CCAC
:10022400C583CCF0A3C8C582C8CCC583CCDFEADEC5
:10023400E880DB89828A83E493A3F208DFF980CC27
:1002440088F0EF60010E4E60C388F0ED2402B40420
:100254000050B9F582EB2402B4040050AF232345C7
:0602640082239001C47327
:10047500E4FFFE120296600C0FEF70010E09E970A1
:05048500F20A80EF22E5
:10026A00EF4E6012EF60010EEDBB010B89828A83AB
:10027A00F0A3DFFCDEFA2289F05007F709DFFCA9B8
:0C028A00F022BBFEFCF309DFFCA9F0220F
:1002BB00020003E493A3F8E493A34003F68001F256
:1002CB0008DFF48029E493A3F85407240CC8C33344
:1002DB00C4540F4420C8834004F456800146F6DF13
:1002EB00E4800B010204081020408090049EE47E01
:1002FB00019360BCA3FF543F30E509541FFEE49308
:10030B00A360010ECF54C025E060A840B8E493A3CE
:10031B00FAE493A3F8E493A3C8C582C8CAC583CAF9
:10032B00F0A3C8C582C8CAC583CADFE9DEE780BEB1
:0104A100005A
:10029600BB010689828A83E0225002E722BBFE0266
:0902A600E32289828A83E4932299
:00000001FF
